:100000000C9462000C948A000C948A000C948A0070
:100010000C948A000C948A000C948A000C948A0038
:100020000C948A000C948A000C948A000C948A0028
:100030000C948A000C948A000C948A000C948A0018
:100040000C949A050C948A000C9468050C94420553
:100050000C948A000C948A000C948A000C948A00F8
:100060000C948A000C948A000000000024002700F1
:100070002A0000000000250028002B0000000000DE
:1000800023002600290004040404040404040202DA
:100090000202020203030303030301020408102007
:1000A0004080010204081020010204081020000012
:1000B0000008000201000003040700000000000027
:1000C0000000E40511241FBECFEFD8E0DEBFCDBF96
:1000D00011E0A0E0B1E0ECE4F0E102C005900D9287
:1000E000A437B107D9F723E0A4E7B1E001C01D921E
:1000F000A231B207E1F710E0C2E6D0E004C02197D8
:10010000FE010E941E08C136D107C9F70E94BE0633
:100110000C9424080C940000AF92BF92CF92DF920F
:10012000EF92FF920F931F93CF93DF936C017B01AC
:100130008B01040F151FEB015E01AE18BF08C0173D
:10014000D10759F06991D601ED91FC910190F081B0
:10015000E02DC6010995892B79F7C501DF91CF9173
:100160001F910F91FF90EF90DF90CF90BF90AF90D5
:100170000895FC01538D448D252F30E0842F90E0AD
:10018000821B930B541710F0CF9608950197089592
:10019000FC01918D828D981761F0A28DAE0FBF2F5B
:1001A000B11D5D968C91928D9F5F9F73928F90E0B1
:1001B00008958FEF9FEF0895FC01918D828D981720
:1001C00031F0828DE80FF11D858D90E008958FEF5D
:1001D0009FEF0895FC01918D228D892F90E0805C26
:1001E0009F4F821B91098F739927089587E991E0AA
:1001F0000E94EA0021E0892B09F420E0822F089573
:1002000080E090E0892B29F00E94F60081110C9487
:1002100000000895FC01A48DA80FB92FB11DA35AA9
:10022000BF4F2C91848D90E001968F739927848F16
:10023000A689B7892C93A089B1898C918370806439
:100240008C93938D848D981306C00288F389E02DDA
:1002500080818F7D80830895EF92FF920F931F938B
:10026000CF93DF93EC0181E0888F9B8D8C8D981369
:100270001AC0E889F989808185FF15C09FB7F89475
:10028000EE89FF896083E889F989808183708064C1
:1002900080839FBF81E090E0DF91CF911F910F910C
:1002A000FF90EF900895F62E0B8D10E00F5F1F4F1B
:1002B0000F731127E02E8C8D8E110CC00FB607FC2A
:1002C000FACFE889F989808185FFF5CFCE010E94B8
:1002D0000A01F1CFEB8DEC0FFD2FF11DE35AFF4F1B
:1002E000F0829FB7F8940B8FEA89FB898081806246
:1002F000CFCFCF93DF93EC01888D8823B9F0AA8903
:10030000BB89E889F9898C9185FD03C0808186FDD0
:100310000DC00FB607FCF7CF8C9185FFF2CF80811F
:1003200085FFEDCFCE010E940A01E9CFDF91CF9189
:100330000895833081F028F4813099F08230A9F05B
:1003400008958730A9F08830C9F08430B1F48091E5
:1003500080008F7D03C0809180008F778093800024
:10036000089584B58F7784BD089584B58F7DFBCFC4
:100370008091B0008F778093B00008958091B00095
:100380008F7DF9CFCF93DF93282F30E0F901E2552D
:10039000FF4F8491F901E656FF4FD491F901EA57D6
:1003A000FF4FC491CC23A1F081110E949901EC2F41
:1003B000F0E0EE0FFF1FE458FF4FA591B491EC91D0
:1003C000ED2381E090E009F480E0DF91CF91089582
:1003D00080E090E0FACF1F93CF93DF93282F30E097
:1003E000F901E255FF4F8491F901E656FF4FD49190
:1003F000F901EA57FF4FC491CC23A9F0162F8111C0
:100400000E949901EC2FF0E0EE0FFF1FEE58FF4F16
:10041000A591B4918FB7F894EC91111108C0D095C3
:10042000DE23DC938FBFDF91CF911F910895DE2BE8
:10043000F8CFCF93DF9390E0FC01E656FF4F249175
:100440008A579F4FFC0184918823C9F090E0880F60
:10045000991FFC01E859FF4FA591B491FC01EE589A
:10046000FF4FC591D49161110DC09FB7F8948C9145
:10047000209582238C938881282328839FBFDF9136
:10048000CF910895623051F49FB7F8943C91822F38
:10049000809583238C93E8812E2BEFCF8FB7F89430
:1004A000EC912E2B2C938FBFEACF3FB7F89480911D
:1004B000790190917A01A0917B01B0917C0126B5E0
:1004C000A89B05C02F3F19F00196A11DB11D3FBF8C
:1004D000BA2FA92F982F8827BC01CD01620F711D5B
:1004E000811D911D42E0660F771F881F991F4A9555
:1004F000D1F708958F929F92AF92BF92CF92DF92E1
:10050000EF92FF924B015C010E9455026B017C014E
:100510000E9455026C197D098E099F09683E73403F
:1005200081059105A8F321E0821A9108A108B1087C
:1005300088EEC80E83E0D81EE11CF11C81149104E2
:10054000A104B10429F7FF90EF90DF90CF90BF9006
:10055000AF909F908F900895CF93DF93DC0126E0BA
:10056000629FA00DB11D112490965C934E935F97EE
:1005700021E091962C939197FC01E359FF4F019054
:10058000F081E02DEC01C459DF4F2881222341F096
:10059000309719F0DC01662329F0DF91CF9108959F
:1005A0003097D9F35C968C91DF91CF910994CF92DB
:1005B000DF92EF92FF920F931F93CF93DF93FC0193
:1005C00026E0629FE00DF11D112411A2278D30A1BC
:1005D0002130310559F188F02230310509F452C03B
:1005E0002330310509F453C0DF91CF911F910F9152
:1005F000FF90EF90DF90CF9008954423A9F3EC0192
:1006000041E050E00E94AC022FB7F8948091750150
:1006100090917601A0917701B09178012FBFC85ACF
:10062000DF4F88839983AA83BB83DECF2FB7F894EB
:10063000C0907501D0907601E0907701F09078013C
:100640002FBFFC01E85AFF4F0081118122813381C5
:10065000C01AD10AE20AF30A72960081118130E0D1
:1006600020E00C151D052E053F0560F442E050E02A
:10067000DF91CF911F910F91FF90EF90DF90CF907E
:100680000C94AC024111B0CF43E050E0F1CF50E008
:1006900040E0EECF862F642F0C941902862F642F32
:1006A0000C94EB01862F0C94C2012F923F924F9233
:1006B0005F926F927F928F929F92AF92BF92CF92F2
:1006C000DF92EF92FF920F931F93CF93DF93CDB7FB
:1006D000DEB72C970FB6F894DEBF0FBECDBF9C01DE
:1006E00024593F4F3A83298321E0A981BA812C9371
:1006F0004FB7F89400917501109176012091770120
:10070000309178014FBFFC01E45AFF4FFC83EB832B
:100710004081518162817381041B150B260B370BBD
:100720003C964081518170E060E0401751076207BC
:10073000730708F059C19C878B8710E06C01F6E6BF
:10074000CF0ED11C7C0122E6E20EF11CD6018C9169
:10075000181758F4D701ED91FC91E10FF11D62E0FB
:1007600080810E9419021F5FF1CF312C4B845C8481
:10077000B7E64B0E511CEB84FC84E4E6EE0EF11C54
:10078000812C912C540183942B853C852E593F4F0D
:100790003A872987D2018C91381608F063C0032D5F
:1007A00010E0D701ED91FC91E00FF11F61E0808135
:1007B0000E941902D701ED91FC91E00FF11F60E05A
:1007C00080810E94EB01D501C401032C04C0880F75
:1007D000991FAA1FBB1F0A94D2F79E838D83FC0129
:1007E000E095F095F887EF83212CD6018C9128169F
:1007F00020F5622C712CA985BA85ED91FC91E60D4E
:10080000F71D80810E94C201660C771CEB85FC8578
:10081000E60DF71D892B51F4808591852D813E8150
:10082000822B932B918780872394DFCF80859185BE
:100830004F81588584239523F5CFD701ED91FC9105
:10084000E00FF11F61E080810E94EB01F7018081E0
:100850009181080F191F60E0D8018C910E94190244
:10086000339498CF0B851C85C801CC9678012FEF67
:100870003FEFF701478D50A1452B21F4148E368FA1
:10088000258F11A2F6E0EF0EF11CE816F90689F7A4
:10089000912CAB84BC8420E6A20EB11C96E0392ECC
:1008A000D6018C91981608F059C0812C692C712CB6
:1008B000B4E06B0E711C660C771CEB85FC856E0E2C
:1008C0007F1ED2018C91881608F046C0F30140814A
:1008D0005181082C02C0569547950A94E2F7989EDC
:1008E000C0011124880D911DEB85FC8560E0258DEC
:1008F000368D8217930709F47CC06F5F36966A3095
:10090000B1F740FF27C0EB85FC8570E060E0248DE7
:1009100021111AC0D501ED91FC91E80FF91F20813A
:10092000369EF001379EF00D11244B855C85E40F57
:10093000F51F248F968F858F10A2178E41E08B852F
:100940009C850E94D70206C06F5F7F4F36966A3043
:100950007105E9F68394B5CF9394A2CF80E0D801D6
:1009600091969C919111892F0A5F1F4FE016F10615
:10097000B1F79FB7F894409175015091760160915D
:100980007701709178019FBFEB81FC814083518397
:1009900062837383882341F1AB85BC8591968C91EA
:1009A0009197882309F15F968D919C91909701977B
:1009B000D9F45C968C912C960FB6F894DEBF0FBEDE
:1009C000CDBFDF91CF911F910F91FF90EF90DF90FE
:1009D000CF90BF90AF909F908F907F906F905F90DF
:1009E0004F903F902F900895E981FA81108280E026
:1009F000E2CF4170A4CF80917E01811104C083EACF
:100A000092E00C945503823019F484E392E0F9CF1C
:100A1000813011F080E0089583EA92E00E9455034E
:100A20008823C1F38A3209F080520895FC010190B5
:100A30000020E9F73197AF01481B590BBC0187E94A
:100A400091E00C948C00CF93DF930E941605EC018B
:100A50008BE391E00E9416058C0F9D1FDF91CF91D3
:100A60000895CF93DF93682F87E991E00E942C01CE
:100A7000EC018BE391E00E9416058C0F9D1FDF9126
:100A8000CF9108951F920F920FB60F9211242F93BA
:100A90003F934F935F936F937F938F939F93AF9306
:100AA000BF93EF93FF9387E991E00E940A01FF91C2
:100AB000EF91BF91AF919F918F917F916F915F91D6
:100AC0004F913F912F910F900FBE0F901F9018954F
:100AD0001F920F920FB60F9211242F938F939F9313
:100AE000EF93FF93E091A701F091A8018081E0913D
:100AF000AD01F091AE0182FD1BC090818091B001EB
:100B00008F5F8F732091B101821741F0E091B001A6
:100B1000F0E0E956FE4F958F8093B001FF91EF9181
:100B20009F918F912F910F900FBE0F901F9018954E
:100B30008081F4CF1F920F920FB60F9211242F9342
:100B40003F938F939F93AF93BF9380917501909143
:100B50007601A0917701B09178013091740123E082
:100B6000230F2D3758F50196A11DB11D2093740157
:100B70008093750190937601A0937701B0937801EB
:100B80008091790190917A01A0917B01B0917C01D3
:100B90000196A11DB11D8093790190937A01A093D4
:100BA0007B01B0937C01BF91AF919F918F913F9159
:100BB0002F910F900FBE0F901F90189526E8230FCE
:100BC0000296A11DB11DD2CF10929A0110929901E7
:100BD00088EE93E0A0E0B0E080939B0190939C01AD
:100BE000A0939D01B0939E0183E291E090939801C0
:100BF0008093970185EC90E09093A4018093A301EA
:100C000084EC90E09093A6018093A50180EC90E0A5
:100C10009093A8018093A70181EC90E09093AA01A2
:100C20008093A90182EC90E09093AC018093AB019A
:100C300086EC90E09093AE018093AD011092B001EC
:100C40001092B1011092B2011092B3011092A5025C
:100C50001092A9021092A8021092AA0285E391E0D4
:100C60009093A4028093A302EFEBF2E0108214822F
:100C700013821582369682E0EB3FF807B9F78FE0D2
:100C800091E090930603809305038CE091E09093AC
:100C900008038093070384E08093090383E0809333
:100CA0000A0383E191E090930403809303038AE0B5
:100CB00090E090930C0380930B0384EF91E090936A
:100CC0000E0380930D0310921103109210031092E3
:100CD000FF0210920003109201031092020310927F
:100CE0000F031092360210923A02109239021092BB
:100CF0003B0285E391E09093350280933402E0E576
:100D0000F2E08CE892E0108214821382158236960B
:100D10008E179F07C1F78FE091E090939702809321
:100D200096028CE091E0909399028093980284E07F
:100D300080939A0283E080939B0280E091E09093FD
:100D40009502809394028AE090E090939D028093B4
:100D50009C0284EF91E090939F0280939E021092F8
:100D6000A2021092A102109290021092910210928F
:100D70009202109293021092A0020895CF93DF93F3
:100D8000CDB7DEB7A1970FB6F894DEBF0FBECDBFCB
:100D9000789484B5826084BD84B5816084BD85B556
:100DA000826085BD85B5816085BD80916E00816062
:100DB00080936E0010928100809181008260809308
:100DC000810080918100816080938100809180000A
:100DD0008160809380008091B10084608093B10035
:100DE0008091B00081608093B00080917A0084602F
:100DF00080937A0080917A00826080937A0080915B
:100E00007A00816080937A0080917A008068809374
:100E10007A001092C100E091A701F091A80182E050
:100E20008083E091A301F091A4011082E091A501DB
:100E3000F091A6018FEC80831092AF01E091AB019D
:100E4000F091AC0186E08083E091A901F091AA01C4
:100E5000808180618083E091A901F091AA01808165
:100E600088608083E091A901F091AA018081806867
:100E70008083E091A901F091AA0180818F7D808318
:100E80008EE391E00E94230520E0A22E20E0B22E06
:100E90000E94FB04182F8823F1F18A3209F04AC01E
:100EA0008FE791E00E94230580917E018F5F833060
:100EB000F0F580937E0164EF71E080E090E00E94A5
:100EC0007A0286E491E00E94160520917E0130E0CE
:100ED00050E040E019A28E010F5D1F4F9AE0C92E2D
:100EE000D12CE12CF12CCA01B901A70196010E9475
:100EF000FC07605DF80162938F0121153105410502
:100F0000510589F7309719F0CF010E9416058BE340
:100F100091E00E941605A114B10409F4B9CF0E9412
:100F2000F600882309F4B4CF0E940000B1CF1092DC
:100F30007E01C1CF833281F48FE791E00E942305C7
:100F4000EFE7F1E0119281E0E739F807D9F78CE695
:100F500091E00E942305DFCF0E943105812F8F7D14
:100F6000803509F43FC08735E9F11032E9F180910D
:100F70007E018230C9F182E0012FD12C812E012E19
:100F8000000C9908E82EF12C0E94FB04882389F0BC
:100F900018132CC00F5F802F002E000C990B88199E
:100FA0009909E816F9060CF4012F802F0E943105EB
:100FB000D12C6AE070E080E090E00E947A02D39445
:100FC000E3E3DE12E1CF80917D01E82FF0E0E1580C
:100FD000FE4F00838F5F893160F480937D018FE73E
:100FE00091E0B7CF83E0C8CF80E0C6CF82E3D82EB0
:100FF000E0CF10927D01F3CFA1E21A2EAA1BBB1BFA
:10100000FD010DC0AA1FBB1FEE1FFF1FA217B307D4
:10101000E407F50720F0A21BB30BE40BF50B661FEA
:10102000771F881F991F1A9469F7609570958095AE
:1010300090959B01AC01BD01CF010895EE0FFF1FFC
:0C1040000590F491E02D0994F894FFCF86
:10104C003132333435363738392A30230A09080B14
:10105C000C0D0E206164676A6D7074772A20230072
:10106C000000002C018C00B9007901EA00C800DCFA
:10107C0000000000004A034E0352030D0A00537493
:10108C00617274656400416C7068613D302C207530
:10109C00707065723D312C206E756D657269633AA6
:1010AC00322043757272656E74203A00436C656130
:0410BC0072656400F5
:00000001FF
